{
  "contractName": "Arrendamiento",
  "abi": [
    {
      "inputs": [],
      "payable": false,
      "stateMutability": "nonpayable",
      "type": "constructor",
      "signature": "constructor"
    },
    {
      "constant": false,
      "inputs": [
        {
          "name": "cedula",
          "type": "string"
        },
        {
          "name": "nombre",
          "type": "string"
        }
      ],
      "name": "registrarNuevoInquilino",
      "outputs": [
        {
          "name": "correcto",
          "type": "bool"
        }
      ],
      "payable": false,
      "stateMutability": "nonpayable",
      "type": "function",
      "signature": "0xa12114fa"
    },
    {
      "constant": true,
      "inputs": [
        {
          "name": "cedula",
          "type": "string"
        }
      ],
      "name": "existeInquilino",
      "outputs": [
        {
          "name": "existe",
          "type": "bool"
        }
      ],
      "payable": false,
      "stateMutability": "view",
      "type": "function",
      "signature": "0x92f7cc7c"
    },
    {
      "constant": false,
      "inputs": [
        {
          "name": "id",
          "type": "string"
        },
        {
          "name": "descripcion",
          "type": "string"
        },
        {
          "name": "direccion",
          "type": "string"
        },
        {
          "name": "prestaciones",
          "type": "string"
        },
        {
          "name": "amoblado",
          "type": "bool"
        }
      ],
      "name": "registrarNuevoInmueble",
      "outputs": [
        {
          "name": "correcto",
          "type": "bool"
        }
      ],
      "payable": false,
      "stateMutability": "nonpayable",
      "type": "function",
      "signature": "0x11c3ce91"
    },
    {
      "constant": true,
      "inputs": [
        {
          "name": "idInmueble",
          "type": "string"
        }
      ],
      "name": "existeInmueble",
      "outputs": [
        {
          "name": "existe",
          "type": "bool"
        }
      ],
      "payable": false,
      "stateMutability": "view",
      "type": "function",
      "signature": "0xf96f8aec"
    },
    {
      "constant": false,
      "inputs": [
        {
          "name": "precio",
          "type": "uint256"
        },
        {
          "name": "garantia",
          "type": "uint256"
        },
        {
          "name": "arriendoPagado",
          "type": "bool"
        },
        {
          "name": "garantiaPagada",
          "type": "bool"
        },
        {
          "name": "idInmueble",
          "type": "string"
        },
        {
          "name": "cedula",
          "type": "string"
        }
      ],
      "name": "registrarArriendo",
      "outputs": [
        {
          "name": "correcto",
          "type": "bool"
        }
      ],
      "payable": false,
      "stateMutability": "nonpayable",
      "type": "function",
      "signature": "0x46e2f6b3"
    },
    {
      "constant": true,
      "inputs": [
        {
          "name": "idInmueble",
          "type": "string"
        }
      ],
      "name": "obtenerInmueble",
      "outputs": [
        {
          "components": [
            {
              "name": "idInmueble",
              "type": "string"
            },
            {
              "name": "descripcion",
              "type": "string"
            },
            {
              "name": "direccion",
              "type": "string"
            },
            {
              "name": "prestaciones",
              "type": "string"
            },
            {
              "name": "amoblado",
              "type": "bool"
            },
            {
              "name": "marcadeTiempo",
              "type": "uint256"
            }
          ],
          "name": "inmueble",
          "type": "tuple"
        },
        {
          "name": "existe",
          "type": "bool"
        }
      ],
      "payable": false,
      "stateMutability": "view",
      "type": "function",
      "signature": "0xabdcbaf3"
    },
    {
      "constant": true,
      "inputs": [
        {
          "name": "cedula",
          "type": "string"
        }
      ],
      "name": "obtenerInquilino",
      "outputs": [
        {
          "components": [
            {
              "name": "cedula",
              "type": "string"
            },
            {
              "name": "nombre",
              "type": "string"
            },
            {
              "name": "marcadeTiempo",
              "type": "uint256"
            }
          ],
          "name": "inquilino",
          "type": "tuple"
        },
        {
          "name": "existe",
          "type": "bool"
        }
      ],
      "payable": false,
      "stateMutability": "view",
      "type": "function",
      "signature": "0xd5d44a25"
    },
    {
      "constant": true,
      "inputs": [],
      "name": "obtenerListaDeInquilinos",
      "outputs": [
        {
          "components": [
            {
              "name": "cedula",
              "type": "string"
            },
            {
              "name": "nombre",
              "type": "string"
            },
            {
              "name": "marcadeTiempo",
              "type": "uint256"
            }
          ],
          "name": "",
          "type": "tuple[]"
        }
      ],
      "payable": false,
      "stateMutability": "view",
      "type": "function",
      "signature": "0xd65d5773"
    },
    {
      "constant": true,
      "inputs": [],
      "name": "obtenerListaDeInmuebles",
      "outputs": [
        {
          "components": [
            {
              "name": "idInmueble",
              "type": "string"
            },
            {
              "name": "descripcion",
              "type": "string"
            },
            {
              "name": "direccion",
              "type": "string"
            },
            {
              "name": "prestaciones",
              "type": "string"
            },
            {
              "name": "amoblado",
              "type": "bool"
            },
            {
              "name": "marcadeTiempo",
              "type": "uint256"
            }
          ],
          "name": "",
          "type": "tuple[]"
        }
      ],
      "payable": false,
      "stateMutability": "view",
      "type": "function",
      "signature": "0x5b94efae"
    },
    {
      "constant": true,
      "inputs": [],
      "name": "obtenerListaDeArriendos",
      "outputs": [
        {
          "components": [
            {
              "name": "precio",
              "type": "uint256"
            },
            {
              "name": "garantia",
              "type": "uint256"
            },
            {
              "name": "marcadeTiempo",
              "type": "uint256"
            },
            {
              "name": "arriendoPagado",
              "type": "bool"
            },
            {
              "name": "garantiaPagada",
              "type": "bool"
            },
            {
              "name": "idInmueble",
              "type": "string"
            },
            {
              "name": "cedula",
              "type": "string"
            },
            {
              "components": [
                {
                  "name": "idInmueble",
                  "type": "string"
                },
                {
                  "name": "descripcion",
                  "type": "string"
                },
                {
                  "name": "direccion",
                  "type": "string"
                },
                {
                  "name": "prestaciones",
                  "type": "string"
                },
                {
                  "name": "amoblado",
                  "type": "bool"
                },
                {
                  "name": "marcadeTiempo",
                  "type": "uint256"
                }
              ],
              "name": "inmueble",
              "type": "tuple"
            },
            {
              "components": [
                {
                  "name": "cedula",
                  "type": "string"
                },
                {
                  "name": "nombre",
                  "type": "string"
                },
                {
                  "name": "marcadeTiempo",
                  "type": "uint256"
                }
              ],
              "name": "inquilino",
              "type": "tuple"
            }
          ],
          "name": "",
          "type": "tuple[]"
        }
      ],
      "payable": false,
      "stateMutability": "view",
      "type": "function",
      "signature": "0x1a2ab340"
    }
  ],
  "bytecode": "0x608060405234801561001057600080fd5b5060008054600160a060020a031916331790556125a3806100326000396000f3fe60806040526004361061008a5763ffffffff60e060020a60003504166311c3ce91811461008f5780631a2ab340146100c557806346e2f6b3146100e75780635b94efae1461010757806392f7cc7c14610129578063a12114fa14610149578063abdcbaf314610169578063d5d44a2514610197578063d65d5773146101c5578063f96f8aec146101e7575b600080fd5b34801561009b57600080fd5b506100af6100aa366004611f0c565b610207565b6040516100bc9190612455565b60405180910390f35b3480156100d157600080fd5b506100da61031f565b6040516100bc9190612422565b3480156100f357600080fd5b506100af610102366004611fe0565b6108c7565b34801561011357600080fd5b5061011c610b16565b6040516100bc9190612433565b34801561013557600080fd5b506100af610144366004611e6e565b610ded565b34801561015557600080fd5b506100af610164366004611ea3565b610ee3565b34801561017557600080fd5b50610189610184366004611e6e565b610f91565b6040516100bc929190612488565b3480156101a357600080fd5b506101b76101b2366004611e6e565b6115f8565b6040516100bc9291906124a8565b3480156101d157600080fd5b506101da6119f3565b6040516100bc9190612444565b3480156101f357600080fd5b506100af610202366004611e6e565b611b8f565b600061021286611b8f565b151561031257610220611c7a565b506040805160c08101825287815260208082018890528183018790526060820186905284151560808301524260a083015233600090815260018083529381208054948501808255908252908290208351805194959294869460069094029092019261029092849290910190611cb3565b5060208281015180516102a99260018501920190611cb3565b50604082015180516102c5916002840191602090910190611cb3565b50606082015180516102e1916003840191602090910190611cb3565b50608082015160048201805460ff191691151591909117905560a09091015160059091015550600191506103169050565b5060005b95945050505050565b336000908152600360209081526040808320805482518185028101850190935280835260609492939192909184015b828210156108bd5760008481526020908190206040805161012081018252600f8602909201805483526001808201548486015260028083015485850152600383015460ff808216151560608801526101009182900416151560808701526004840180548651948116159092026000190190911691909104601f81018790048702830187019094528382529394919360a086019391929091908301828280156104375780601f1061040c57610100808354040283529160200191610437565b820191906000526020600020905b81548152906001019060200180831161041a57829003601f168201915b505050918352505060058201805460408051602060026001851615610100026000190190941693909304601f81018490048402820184019092528181529382019392918301828280156104cb5780601f106104a0576101008083540402835291602001916104cb565b820191906000526020600020905b8154815290600101906020018083116104ae57829003601f168201915b50505091835250506040805160068401805460e06020601f6002600019610100600187161502019094169390930492830181900481028501820190955260c08401828152949095019492939192849291849184018282801561056e5780601f106105435761010080835404028352916020019161056e565b820191906000526020600020905b81548152906001019060200180831161055157829003601f168201915b50505050508152602001600182018054600181600116156101000203166002900480601f0160208091040260200160405190810160405280929190818152602001828054600181600116156101000203166002900480156106105780601f106105e557610100808354040283529160200191610610565b820191906000526020600020905b8154815290600101906020018083116105f357829003601f168201915b5050509183525050600282810180546040805160206001841615610100026000190190931694909404601f810183900483028501830190915280845293810193908301828280156106a25780601f10610677576101008083540402835291602001916106a2565b820191906000526020600020905b81548152906001019060200180831161068557829003601f168201915b505050918352505060038201805460408051602060026001851615610100026000190190941693909304601f81018490048402820184019092528181529382019392918301828280156107365780601f1061070b57610100808354040283529160200191610736565b820191906000526020600020905b81548152906001019060200180831161071957829003601f168201915b5050509183525050600482015460ff1615156020808301919091526005909201546040918201529183528151600c8501805460026101006001831615026000190190911604601f8101849004840283016080908101909552606083018181529590930194919390928492918491908401828280156107f55780601f106107ca576101008083540402835291602001916107f5565b820191906000526020600020905b8154815290600101906020018083116107d857829003601f168201915b50505050508152602001600182018054600181600116156101000203166002900480601f0160208091040260200160405190810160405280929190818152602001828054600181600116156101000203166002900480156108975780601f1061086c57610100808354040283529160200191610897565b820191906000526020600020905b81548152906001019060200180831161087a57829003601f168201915b50505050508152602001600282015481525050815250508152602001906001019061034e565b5050505090505b90565b80516000908190158015906108dc5750835115155b15610b0a576108e9611d31565b60006108f4856115f8565b91509150610900611c7a565b600061090b88610f91565b915091508280156109195750805b15610b05578980156109285750885b15610b0557610935611d53565b5060408051610120810182528d815260208082018e8152428385019081528e1515606085019081528e15156080860190815260a086018f815260c087018f905260e087018a90526101008088018d9052336000908152600380895299812080546001808201808455928452928a90208b51600f909202019081559751918801919091559451600287015592519785018054925160ff19939093169815159890981761ff001916911515909202179095559351805193949385936109ff926004850192910190611cb3565b5060c08201518051610a1b916005840191602090910190611cb3565b5060e0820151805180516006840191610a3991839160200190611cb3565b506020828101518051610a529260018501920190611cb3565b5060408201518051610a6e916002840191602090910190611cb3565b5060608201518051610a8a916003840191602090910190611cb3565b50608082015160048201805460ff191691151591909117905560a09091015160059091015561010082015180518051600c840191610acd91839160200190611cb3565b506020828101518051610ae69260018501920190611cb3565b5060408201518160020155505050505060019650505050505050610b0c565b505050505b505b9695505050505050565b336000908152600160209081526040808320805482518185028101850190935280835260609492939192909184015b828210156108bd5760008481526020908190206040805160068602909201805460026001821615610100026000190190911604601f8101859004909402830160e090810190925260c0830184815292939092849290918491840182828015610bee5780601f10610bc357610100808354040283529160200191610bee565b820191906000526020600020905b815481529060010190602001808311610bd157829003601f168201915b50505050508152602001600182018054600181600116156101000203166002900480601f016020809104026020016040519081016040528092919081815260200182805460018160011615610100020316600290048015610c905780601f10610c6557610100808354040283529160200191610c90565b820191906000526020600020905b815481529060010190602001808311610c7357829003601f168201915b5050509183525050600282810180546040805160206001841615610100026000190190931694909404601f81018390048302850183019091528084529381019390830182828015610d225780601f10610cf757610100808354040283529160200191610d22565b820191906000526020600020905b815481529060010190602001808311610d0557829003601f168201915b505050918352505060038201805460408051602060026001851615610100026000190190941693909304601f8101849004840282018401909252818152938201939291830182828015610db65780601f10610d8b57610100808354040283529160200191610db6565b820191906000526020600020905b815481529060010190602001808311610d9957829003601f168201915b5050509183525050600482015460ff1615156020808301919091526005909201546040909101529082526001929092019101610b45565b6000805b33600090815260026020526040902054811015610ed857336000908152600260205260409020805473__Utilidades____________________________916369e830999184908110610e3f57fe5b9060005260206000209060030201600001856040518363ffffffff1660e060020a028152600401610e71929190612463565b60206040518083038186803b158015610e8957600080fd5b505af4158015610e9d573d6000803e3d6000fd5b505050506040513d601f19601f82011682018060405250610ec19190810190611e48565b15610ed0576001915050610ede565b600101610df1565b50600090505b919050565b6000610eee83610ded565b1515610f8757610efc611d31565b506040805160608101825284815260208082018590524282840152336000908152600282529283208054600181018083559185529382902083518051949592948694600390940290920192610f5692849290910190611cb3565b506020828101518051610f6f9260018501920190611cb3565b50604082015181600201555050506001915050610f8b565b5060005b92915050565b610f99611c7a565b6000805b3360009081526001602052604090205481101561134257336000908152600160205260409020805473__Utilidades____________________________916369e830999184908110610feb57fe5b9060005260206000209060060201600001866040518363ffffffff1660e060020a02815260040161101d929190612463565b60206040518083038186803b15801561103557600080fd5b505af4158015611049573d6000803e3d6000fd5b505050506040513d601f19601f8201168201806040525061106d9190810190611e48565b1561133a5733600090815260016020526040902080548290811061108d57fe5b906000526020600020906006020160018160c06040519081016040529081600082018054600181600116156101000203166002900480601f0160208091040260200160405190810160405280929190818152602001828054600181600116156101000203166002900480156111435780601f1061111857610100808354040283529160200191611143565b820191906000526020600020905b81548152906001019060200180831161112657829003601f168201915b50505050508152602001600182018054600181600116156101000203166002900480601f0160208091040260200160405190810160405280929190818152602001828054600181600116156101000203166002900480156111e55780601f106111ba576101008083540402835291602001916111e5565b820191906000526020600020905b8154815290600101906020018083116111c857829003601f168201915b5050509183525050600282810180546040805160206001841615610100026000190190931694909404601f810183900483028501830190915280845293810193908301828280156112775780601f1061124c57610100808354040283529160200191611277565b820191906000526020600020905b81548152906001019060200180831161125a57829003601f168201915b505050918352505060038201805460408051602060026001851615610100026000190190941693909304601f810184900484028201840190925281815293820193929183018282801561130b5780601f106112e05761010080835404028352916020019161130b565b820191906000526020600020905b8154815290600101906020018083116112ee57829003601f168201915b5050509183525050600482015460ff1615156020820152600590910154604090910152945092506115f3915050565b600101610f9d565b503360009081526001602052604081208054909190811061135f57fe5b6000918252602080832060408051600694909402909101805460026001821615610100026000190190911604601f8101849004909302840160e090810190925260c0840183815290949392859284929184918401828280156114025780601f106113d757610100808354040283529160200191611402565b820191906000526020600020905b8154815290600101906020018083116113e557829003601f168201915b50505050508152602001600182018054600181600116156101000203166002900480601f0160208091040260200160405190810160405280929190818152602001828054600181600116156101000203166002900480156114a45780601f10611479576101008083540402835291602001916114a4565b820191906000526020600020905b81548152906001019060200180831161148757829003601f168201915b5050509183525050600282810180546040805160206001841615610100026000190190931694909404601f810183900483028501830190915280845293810193908301828280156115365780601f1061150b57610100808354040283529160200191611536565b820191906000526020600020905b81548152906001019060200180831161151957829003601f168201915b505050918352505060038201805460408051602060026001851615610100026000190190941693909304601f81018490048402820184019092528181529382019392918301828280156115ca5780601f1061159f576101008083540402835291602001916115ca565b820191906000526020600020905b8154815290600101906020018083116115ad57829003601f168201915b5050509183525050600482015460ff161515602082015260059091015460409091015293509150505b915091565b611600611d31565b6000805b3360009081526002602052604090205481101561187357336000908152600260205260409020805473__Utilidades____________________________916369e83099918490811061165257fe5b9060005260206000209060030201600001866040518363ffffffff1660e060020a028152600401611684929190612463565b60206040518083038186803b15801561169c57600080fd5b505af41580156116b0573d6000803e3d6000fd5b505050506040513d601f19601f820116820180604052506116d49190810190611e48565b1561186b573360009081526002602052604090208054829081106116f457fe5b906000526020600020906003020160018160606040519081016040529081600082018054600181600116156101000203166002900480601f0160208091040260200160405190810160405280929190818152602001828054600181600116156101000203166002900480156117aa5780601f1061177f576101008083540402835291602001916117aa565b820191906000526020600020905b81548152906001019060200180831161178d57829003601f168201915b50505050508152602001600182018054600181600116156101000203166002900480601f01602080910402602001604051908101604052809291908181526020018280546001816001161561010002031660029004801561184c5780601f106118215761010080835404028352916020019161184c565b820191906000526020600020905b81548152906001019060200180831161182f57829003601f168201915b50505050508152602001600282015481525050915092509250506115f3565b600101611604565b503360009081526002602052604081208054909190811061189057fe5b6000918252602080832060408051600394909402909101805460026001821615610100026000190190911604601f8101849004909302840160809081019092526060840183815290949392859284929184918401828280156119335780601f1061190857610100808354040283529160200191611933565b820191906000526020600020905b81548152906001019060200180831161191657829003601f168201915b50505050508152602001600182018054600181600116156101000203166002900480601f0160208091040260200160405190810160405280929190818152602001828054600181600116156101000203166002900480156119d55780601f106119aa576101008083540402835291602001916119d5565b820191906000526020600020905b8154815290600101906020018083116119b857829003601f168201915b50505050508152602001600282015481525050915091509150915091565b336000908152600260209081526040808320805482518185028101850190935280835260609492939192909184015b828210156108bd5760008481526020908190206040805160038602909201805460026001821615610100026000190190911604601f8101859004909402830160809081019092526060830184815292939092849290918491840182828015611acb5780601f10611aa057610100808354040283529160200191611acb565b820191906000526020600020905b815481529060010190602001808311611aae57829003601f168201915b50505050508152602001600182018054600181600116156101000203166002900480601f016020809104026020016040519081016040528092919081815260200182805460018160011615610100020316600290048015611b6d5780601f10611b4257610100808354040283529160200191611b6d565b820191906000526020600020905b815481529060010190602001808311611b5057829003601f168201915b5050505050815260200160028201548152505081526020019060010190611a22565b6000805b33600090815260016020526040902054811015610ed857336000908152600160205260409020805473__Utilidades____________________________916369e830999184908110611be157fe5b9060005260206000209060060201600001856040518363ffffffff1660e060020a028152600401611c13929190612463565b60206040518083038186803b158015611c2b57600080fd5b505af4158015611c3f573d6000803e3d6000fd5b505050506040513d601f19601f82011682018060405250611c639190810190611e48565b15611c72576001915050610ede565b600101611b93565b60c06040519081016040528060608152602001606081526020016060815260200160608152602001600015158152602001600081525090565b828054600181600116156101000203166002900490600052602060002090601f016020900481019282601f10611cf457805160ff1916838001178555611d21565b82800160010185558215611d21579182015b82811115611d21578251825591602001919060010190611d06565b50611d2d929150611daf565b5090565b6060604051908101604052806060815260200160608152602001600081525090565b610200604051908101604052806000815260200160008152602001600081526020016000151581526020016000151581526020016060815260200160608152602001611d9d611c7a565b8152602001611daa611d31565b905290565b6108c491905b80821115611d2d5760008155600101611db5565b6000611dd5823561251e565b9392505050565b6000611dd5825161251e565b6000601f82018313611df957600080fd5b8135611e0c611e07826124e0565b6124b9565b91508082526020830160208301858383011115611e2857600080fd5b611e33838284612523565b50505092915050565b6000611dd582356108c4565b600060208284031215611e5a57600080fd5b6000611e668484611ddc565b949350505050565b600060208284031215611e8057600080fd5b813567ffffffffffffffff811115611e9757600080fd5b611e6684828501611de8565b60008060408385031215611eb657600080fd5b823567ffffffffffffffff811115611ecd57600080fd5b611ed985828601611de8565b925050602083013567ffffffffffffffff811115611ef657600080fd5b611f0285828601611de8565b9150509250929050565b600080600080600060a08688031215611f2457600080fd5b853567ffffffffffffffff811115611f3b57600080fd5b611f4788828901611de8565b955050602086013567ffffffffffffffff811115611f6457600080fd5b611f7088828901611de8565b945050604086013567ffffffffffffffff811115611f8d57600080fd5b611f9988828901611de8565b935050606086013567ffffffffffffffff811115611fb657600080fd5b611fc288828901611de8565b9250506080611fd388828901611dc9565b9150509295509295909350565b60008060008060008060c08789031215611ff957600080fd5b60006120058989611e3c565b965050602061201689828a01611e3c565b955050604061202789828a01611dc9565b945050606061203889828a01611dc9565b935050608087013567ffffffffffffffff81111561205557600080fd5b61206189828a01611de8565b92505060a087013567ffffffffffffffff81111561207e57600080fd5b61208a89828a01611de8565b9150509295509295509295565b60006120a28261251a565b808452602084019350836020820285016120bb85612508565b60005b848110156120f25783830388526120d6838351612277565b92506120e182612508565b6020989098019791506001016120be565b50909695505050505050565b60006121098261251a565b8084526020840193508360208202850161212285612508565b60005b848110156120f257838303885261213d838351612340565b925061214882612508565b602098909801979150600101612125565b60006121648261251a565b8084526020840193508360208202850161217d85612508565b60005b848110156120f25783830388526121988383516123d6565b92506121a382612508565b602098909801979150600101612180565b6121bd8161251e565b82525050565b60006121ce8261251a565b8084526121e281602086016020860161252f565b6121eb8161255f565b9093016020019392505050565b60008154600181166000811461221557600181146122335761226f565b60028204607f16855260ff198216602086015260408501925061226f565b600282048086526020860195506122498561250e565b60005b828110156122685781548882015260019091019060200161224c565b8701945050505b505092915050565b805160009061012084019061228c8582612419565b50602083015161229f6020860182612419565b5060408301516122b26040860182612419565b5060608301516122c560608601826121b4565b5060808301516122d860808601826121b4565b5060a083015184820360a08601526122f082826121c3565b91505060c083015184820360c086015261230a82826121c3565b91505060e083015184820360e08601526123248282612340565b91505061010083015184820361010086015261031682826123d6565b805160c08084526000919084019061235882826121c3565b9150506020830151848203602086015261237282826121c3565b9150506040830151848203604086015261238c82826121c3565b915050606083015184820360608601526123a682826121c3565b91505060808301516123bb60808601826121b4565b5060a08301516123ce60a0860182612419565b509392505050565b80516060808452600091908401906123ee82826121c3565b9150506020830151848203602086015261240882826121c3565b91505060408301516123ce60408601825b6121bd816108c4565b60208082528101611dd58184612097565b60208082528101611dd581846120fe565b60208082528101611dd58184612159565b60208101610f8b82846121b4565b6040808252810161247481856121f8565b90508181036020830152611e6681846121c3565b604080825281016124998185612340565b9050611dd560208301846121b4565b6040808252810161249981856123d6565b60405181810167ffffffffffffffff811182821017156124d857600080fd5b604052919050565b600067ffffffffffffffff8211156124f757600080fd5b506020601f91909101601f19160190565b60200190565b60009081526020902090565b5190565b151590565b82818337506000910152565b60005b8381101561254a578181015183820152602001612532565b83811115612559576000848401525b50505050565b601f01601f19169056fea265627a7a7230582000590d9b1817c73b7a8ae48459bbf6a11bb0924c8072f956b8ed6c1f91d359336c6578706572696d656e74616cf50037",
  "source": "//Definir versin de compilador\n//pragma solidity ^0.5.0;\npragma experimental ABIEncoderV2;\n//Importar funciones externas\nimport \"./Utilidades.sol\";\n\n//Declaracin de Smart Contract\ncontract Arrendamiento { \n  \n  //Declarar variables \n  address propietario;\n  //address propietario;\n  mapping(address => Inmueble[]) inmueblesList;\n  mapping(address => Inquilino[]) inquilinosList;\n  mapping(address => Arriendo[]) arriendosList;\n  /*\n  address propietario;\n  mapping(address => Titulo[]) titulosList;\n  mapping(address => EstudianteTitulado[]) estudiantesTituladosList;\n  mapping(address => Estudiante[]) estudiantesList;\n  */\n  //Inquilino, Contrato, Departamento. Fuera: Propietario.\n\n  //Se ejecuta al inicio de cada transaccin\n  constructor() public {\n    //asignar la direccin a la variable inquilino\n    propietario = msg.sender;\n  }\n\n  //Estructura personalizada\n  struct Inmueble {\n    string idInmueble;\n    string descripcion;\n    string direccion;\n    string prestaciones;\n    bool amoblado;\n    uint marcadeTiempo;\n  }\n  struct Inquilino {\n    string cedula;\n    string nombre;\n    uint marcadeTiempo;\n  }\n  //id del inmueble, cedula del inmueble\n  struct Arriendo {\n    uint precio;\n    uint garantia;\n    uint marcadeTiempo;\n    bool arriendoPagado;\n    bool garantiaPagada;\n    string idInmueble;\n    string cedula;\n    Inmueble inmueble;\n    Inquilino inquilino;\n  }\n\n//DESDE AQU FUNCIONES\n\n  function registrarNuevoInquilino(string memory cedula, string memory nombre) public returns (bool correcto) { \n    if (!existeInquilino(cedula)){ \n      Inquilino memory nuevoInquilino = Inquilino({cedula:cedula, nombre:nombre, marcadeTiempo:now}); \n      inquilinosList[msg.sender].push(nuevoInquilino); return true;\n    } \n    return false; \n  }\n\n//modificador view no modifica los datos\n  function existeInquilino(string memory cedula)public view returns (bool existe){ \n    for (uint i = 0; i<inquilinosList[msg.sender].length; i++){ \n      if (Utilidades.esIgual(inquilinosList[msg.sender][i].cedula,cedula)){ \n        return true; \n      } \n    } \n    return false; \n  }\n\n  function registrarNuevoInmueble(string memory id, string memory descripcion, string memory direccion, string memory prestaciones, bool amoblado) public returns (bool correcto) {\n    if (!existeInmueble(id)){ \n      Inmueble memory nuevoInmueble = Inmueble({idInmueble:id, descripcion:descripcion, direccion:direccion, \n      prestaciones:prestaciones, amoblado:amoblado, marcadeTiempo:now}); \n      inmueblesList[msg.sender].push(nuevoInmueble); return true;\n    } \n    return false; \n  }\n  function existeInmueble(string memory idInmueble)public view returns (bool existe){ \n    for (uint i = 0; i<inmueblesList[msg.sender].length; i++){ \n      if (Utilidades.esIgual(inmueblesList[msg.sender][i].idInmueble, idInmueble)){ \n        return true;\n      } \n    } \n    return false; \n  }\n\n  function registrarArriendo(uint precio, uint garantia, bool arriendoPagado, \n  bool garantiaPagada, string memory idInmueble, string memory cedula) public returns (bool correcto){ \n    uint indice=0; \n    //Verificar que cedula e idInmueble no estn vacos.\n    if (bytes(cedula).length != 0 && bytes(idInmueble).length != 0){ \n      //Se obtiene un inquilino en base al parmetro cedula\n      (Inquilino memory inquilino, bool inquilinoRegistrado) = obtenerInquilino(cedula);\n      //Se obtiene un inmueble en base al parmetro idInmueble\n      (Inmueble memory inmueble, bool inmuebleRegistrado) = obtenerInmueble(idInmueble); \n      //Comprueba que los datos de inquilino e inmueble existan\n      if (inquilinoRegistrado && inmuebleRegistrado){ \n        //Comprueba que arriendo y garanta esten pagados para iniciar un contrato de arrendamiento\n        if(arriendoPagado && garantiaPagada){\n          //Se crea el contrato de arrendamiento\n          Arriendo memory arriendo = Arriendo({ precio:precio, garantia:garantia, marcadeTiempo: now, arriendoPagado:arriendoPagado, garantiaPagada:garantiaPagada, idInmueble:idInmueble, cedula:cedula, inmueble:inmueble, inquilino:inquilino});\n          arriendosList[msg.sender].push(arriendo);\n          return true; \n        }\n      } \n    } \n  }\n\n  function obtenerInmueble(string memory idInmueble)public view returns (Inmueble memory inmueble, bool existe){ \n    for (uint i = 0; i<inmueblesList[msg.sender].length; i++){ \n      if (Utilidades.esIgual(inmueblesList[msg.sender][i].idInmueble, idInmueble)){ \n        return (inmueblesList[msg.sender][i], true);\n      } \n    } \n    return (inmueblesList[msg.sender][0], false); \n  }\n\n  function obtenerInquilino(string memory cedula)public view returns (Inquilino memory inquilino, bool existe){ \n    for (uint i = 0; i<inquilinosList[msg.sender].length; i++){ \n      if (Utilidades.esIgual(inquilinosList[msg.sender][i].cedula, cedula)){ \n        return (inquilinosList[msg.sender][i], true);\n      } \n    } \n    return (inquilinosList[msg.sender][0], false); \n  }\n\n  function obtenerListaDeInquilinos()public view returns (Inquilino[] memory){\n    return inquilinosList[msg.sender];\n  }\n  function obtenerListaDeInmuebles()public view returns (Inmueble[] memory){ \n    return inmueblesList[msg.sender];\n  }\n  function obtenerListaDeArriendos()public view returns (Arriendo[] memory){ \n    return arriendosList[msg.sender];\n  }\n\n}\n",
  "sourcePath": "D:/universidad/Tesis/ArrendamientoEthereum/ArrendamientoSolidity/contracts/Arrendamiento.sol",
  "compiler": {
    "name": "solc",
    "version": "0.5.0+commit.1d4f565a.Emscripten.clang"
  },
  "schemaVersion": "3.0.1",
  "updatedAt": "2020-12-09T02:28:00.595Z",
  "devdoc": {
    "methods": {}
  },
  "userdoc": {
    "methods": {}
  }
}