{
  "contractName": "Utilidades",
  "abi": [
    {
      "constant": true,
      "inputs": [
        {
          "name": "cadena1",
          "type": "string"
        },
        {
          "name": "cadena2",
          "type": "string"
        }
      ],
      "name": "esIgual",
      "outputs": [
        {
          "name": "",
          "type": "bool"
        }
      ],
      "payable": false,
      "stateMutability": "pure",
      "type": "function",
      "signature": "0x69e83099"
    },
    {
      "constant": true,
      "inputs": [
        {
          "name": "cadena1",
          "type": "string"
        },
        {
          "name": "cadena2",
          "type": "string"
        }
      ],
      "name": "compara",
      "outputs": [
        {
          "name": "",
          "type": "int256"
        }
      ],
      "payable": false,
      "stateMutability": "pure",
      "type": "function",
      "signature": "0xb8115427"
    }
  ],
  "bytecode": "0x610460610030600b82828239805160001a6073146000811461002057610022565bfe5b5030600052607381538281f3fe73000000000000000000000000000000000000000030146080604052600436106100625763ffffffff7c010000000000000000000000000000000000000000000000000000000060003504166369e830998114610067578063b8115427146101a8575b600080fd5b6101946004803603604081101561007d57600080fd5b81019060208101813564010000000081111561009857600080fd5b8201836020820111156100aa57600080fd5b803590602001918460018302840111640100000000831117156100cc57600080fd5b91908080601f016020809104026020016040519081016040528093929190818152602001838380828437600092019190915250929594936020810193503591505064010000000081111561011f57600080fd5b82018360208201111561013157600080fd5b8035906020019184600183028401116401000000008311171561015357600080fd5b91908080601f0160208091040260200160405190810160405280939291908181526020018383808284376000920191909152509295506102e7945050505050565b604080519115158252519081900360200190f35b6102d5600480360360408110156101be57600080fd5b8101906020810181356401000000008111156101d957600080fd5b8201836020820111156101eb57600080fd5b8035906020019184600183028401116401000000008311171561020d57600080fd5b91908080601f016020809104026020016040519081016040528093929190818152602001838380828437600092019190915250929594936020810193503591505064010000000081111561026057600080fd5b82018360208201111561027257600080fd5b8035906020019184600183028401116401000000008311171561029457600080fd5b91908080601f0160208091040260200160405190810160405280939291908181526020018383808284376000920191909152509295506102fd945050505050565b60408051918252519081900360200190f35b60006102f383836102fd565b1590505b92915050565b815181516000918491849190811115610314575080515b60005b818110156103fa57828181518110151561032d57fe5b90602001015160f860020a900460f860020a02600160f860020a031916848281518110151561035857fe5b90602001015160f860020a900460f860020a02600160f860020a0319161015610389576000199450505050506102f7565b828181518110151561039757fe5b90602001015160f860020a900460f860020a02600160f860020a03191684828151811015156103c257fe5b90602001015160f860020a900460f860020a02600160f860020a03191611156103f25760019450505050506102f7565b600101610317565b508151835110156104125760001993505050506102f7565b81518351111561042857600193505050506102f7565b600093505050506102f756fea165627a7a72305820f9c91446f181d9edba4890fea2ffadba7438d8ed7678066004b6f1d2bac27c540029",
  "source": "//Definir versión de compilador\r\npragma solidity ^0.5.0;\r\n\r\n//Creación de una librería\r\nlibrary Utilidades { \r\n\r\n  function esIgual(string memory cadena1, string memory cadena2) public pure returns (bool) { \r\n    return compara(cadena1, cadena2) == 0;\r\n  }\r\n\r\n  function compara(string memory cadena1, string memory cadena2) public pure returns (int) { \r\n    bytes memory a = bytes(cadena1); \r\n    bytes memory b = bytes(cadena2); \r\n    uint longitud = a.length; \r\n    if (b.length < longitud){\r\n      longitud = b.length; \r\n    }\r\n    for (uint i = 0; i < longitud; i ++){\r\n      if (a[i] < b[i]) return -1;\r\n      else if (a[i] > b[i]) return 1;\r\n    } \r\n    if (a.length < b.length) return -1;\r\n    else if (a.length > b.length) return 1;\r\n    else return 0; \r\n  }\r\n\r\n}",
  "sourcePath": "D:\\universidad\\Tesis\\ArrendamientoEthereum\\ArrendamientoSolidity\\contracts\\Utilidades.sol",
  "compiler": {
    "name": "solc",
    "version": "0.5.0+commit.1d4f565a.Emscripten.clang"
  },
  "schemaVersion": "3.0.1",
  "updatedAt": "2020-12-09T02:28:00.589Z",
  "devdoc": {
    "methods": {}
  },
  "userdoc": {
    "methods": {}
  }
}